{
  "contractName": "Insuralink",
  "abi": [
    {
      "constant": true,
      "inputs": [
        {
          "name": "",
          "type": "address"
        },
        {
          "name": "",
          "type": "uint256"
        }
      ],
      "name": "activeContractsByUser",
      "outputs": [
        {
          "name": "",
          "type": "uint256"
        }
      ],
      "payable": false,
      "stateMutability": "view",
      "type": "function",
      "signature": "0x06de30b0"
    },
    {
      "constant": true,
      "inputs": [
        {
          "name": "",
          "type": "address"
        },
        {
          "name": "",
          "type": "uint256"
        }
      ],
      "name": "templatesByUser",
      "outputs": [
        {
          "name": "",
          "type": "uint256"
        }
      ],
      "payable": false,
      "stateMutability": "view",
      "type": "function",
      "signature": "0x35ebdfd0"
    },
    {
      "constant": false,
      "inputs": [],
      "name": "renounceOwnership",
      "outputs": [],
      "payable": false,
      "stateMutability": "nonpayable",
      "type": "function",
      "signature": "0x715018a6"
    },
    {
      "constant": true,
      "inputs": [
        {
          "name": "",
          "type": "uint256"
        }
      ],
      "name": "activeContracts",
      "outputs": [
        {
          "components": [
            {
              "name": "seller",
              "type": "address"
            },
            {
              "name": "paymentFrequency",
              "type": "uint256"
            },
            {
              "name": "paymentAmount",
              "type": "uint256"
            },
            {
              "name": "totalNumberOfPayments",
              "type": "uint256"
            },
            {
              "name": "insuranceAmount",
              "type": "uint256"
            },
            {
              "name": "validUntil",
              "type": "uint256"
            },
            {
              "name": "description",
              "type": "string"
            },
            {
              "name": "id",
              "type": "uint256"
            }
          ],
          "name": "contractTemplate",
          "type": "tuple"
        },
        {
          "name": "buyer",
          "type": "address"
        },
        {
          "name": "id",
          "type": "uint256"
        },
        {
          "name": "valid",
          "type": "bool"
        },
        {
          "name": "numberOfPayments",
          "type": "uint256"
        },
        {
          "name": "lastPaymentTime",
          "type": "uint256"
        }
      ],
      "payable": false,
      "stateMutability": "view",
      "type": "function",
      "signature": "0x72d00e9f"
    },
    {
      "constant": true,
      "inputs": [],
      "name": "owner",
      "outputs": [
        {
          "name": "",
          "type": "address"
        }
      ],
      "payable": false,
      "stateMutability": "view",
      "type": "function",
      "signature": "0x8da5cb5b"
    },
    {
      "constant": true,
      "inputs": [
        {
          "name": "",
          "type": "uint256"
        }
      ],
      "name": "contractTemplates",
      "outputs": [
        {
          "name": "seller",
          "type": "address"
        },
        {
          "name": "paymentFrequency",
          "type": "uint256"
        },
        {
          "name": "paymentAmount",
          "type": "uint256"
        },
        {
          "name": "totalNumberOfPayments",
          "type": "uint256"
        },
        {
          "name": "insuranceAmount",
          "type": "uint256"
        },
        {
          "name": "validUntil",
          "type": "uint256"
        },
        {
          "name": "description",
          "type": "string"
        },
        {
          "name": "id",
          "type": "uint256"
        }
      ],
      "payable": false,
      "stateMutability": "view",
      "type": "function",
      "signature": "0x9d506c65"
    },
    {
      "constant": true,
      "inputs": [],
      "name": "activeCounter",
      "outputs": [
        {
          "name": "",
          "type": "uint256"
        }
      ],
      "payable": false,
      "stateMutability": "view",
      "type": "function",
      "signature": "0xd0bd7b38"
    },
    {
      "constant": true,
      "inputs": [],
      "name": "templateCounter",
      "outputs": [
        {
          "name": "",
          "type": "uint256"
        }
      ],
      "payable": false,
      "stateMutability": "view",
      "type": "function",
      "signature": "0xd285680d"
    },
    {
      "constant": true,
      "inputs": [],
      "name": "DAI",
      "outputs": [
        {
          "name": "",
          "type": "address"
        }
      ],
      "payable": false,
      "stateMutability": "view",
      "type": "function",
      "signature": "0xe0bab4c4"
    },
    {
      "constant": false,
      "inputs": [
        {
          "name": "_newOwner",
          "type": "address"
        }
      ],
      "name": "transferOwnership",
      "outputs": [],
      "payable": false,
      "stateMutability": "nonpayable",
      "type": "function",
      "signature": "0xf2fde38b"
    },
    {
      "inputs": [
        {
          "name": "_link",
          "type": "address"
        },
        {
          "name": "daiToken",
          "type": "address"
        }
      ],
      "payable": false,
      "stateMutability": "nonpayable",
      "type": "constructor",
      "signature": "constructor"
    },
    {
      "anonymous": false,
      "inputs": [
        {
          "indexed": true,
          "name": "previousOwner",
          "type": "address"
        }
      ],
      "name": "OwnershipRenounced",
      "type": "event",
      "signature": "0xf8df31144d9c2f0f6b59d69b8b98abd5459d07f2742c4df920b25aae33c64820"
    },
    {
      "anonymous": false,
      "inputs": [
        {
          "indexed": true,
          "name": "previousOwner",
          "type": "address"
        },
        {
          "indexed": true,
          "name": "newOwner",
          "type": "address"
        }
      ],
      "name": "OwnershipTransferred",
      "type": "event",
      "signature": "0x8be0079c531659141344cd1fd0a4f28419497f9722a3daafe3b4186f6b6457e0"
    },
    {
      "anonymous": false,
      "inputs": [
        {
          "indexed": true,
          "name": "id",
          "type": "bytes32"
        }
      ],
      "name": "ChainlinkRequested",
      "type": "event",
      "signature": "0xb5e6e01e79f91267dc17b4e6314d5d4d03593d2ceee0fbb452b750bd70ea5af9"
    },
    {
      "anonymous": false,
      "inputs": [
        {
          "indexed": true,
          "name": "id",
          "type": "bytes32"
        }
      ],
      "name": "ChainlinkFulfilled",
      "type": "event",
      "signature": "0x7cc135e0cebb02c3480ae5d74d377283180a2601f8f644edf7987b009316c63a"
    },
    {
      "anonymous": false,
      "inputs": [
        {
          "indexed": true,
          "name": "id",
          "type": "bytes32"
        }
      ],
      "name": "ChainlinkCancelled",
      "type": "event",
      "signature": "0xe1fe3afa0f7f761ff0a8b89086790efd5140d2907ebd5b7ff6bfcb5e075fd4c5"
    },
    {
      "constant": false,
      "inputs": [
        {
          "name": "paymentAmount",
          "type": "uint256"
        },
        {
          "name": "insuranceAmount",
          "type": "uint256"
        },
        {
          "name": "length",
          "type": "uint256"
        },
        {
          "name": "description",
          "type": "string"
        },
        {
          "name": "totalNumberOfPayments",
          "type": "uint256"
        }
      ],
      "name": "createInsuranceContractTemplate",
      "outputs": [
        {
          "name": "",
          "type": "uint256"
        }
      ],
      "payable": false,
      "stateMutability": "nonpayable",
      "type": "function",
      "signature": "0x16ba6dad"
    },
    {
      "constant": false,
      "inputs": [
        {
          "name": "contractTemplateId",
          "type": "uint256"
        }
      ],
      "name": "buyContract",
      "outputs": [],
      "payable": false,
      "stateMutability": "nonpayable",
      "type": "function",
      "signature": "0xd4399445"
    },
    {
      "constant": false,
      "inputs": [
        {
          "name": "contractId",
          "type": "uint256"
        }
      ],
      "name": "payoutInsurance",
      "outputs": [
        {
          "name": "",
          "type": "bool"
        }
      ],
      "payable": false,
      "stateMutability": "nonpayable",
      "type": "function",
      "signature": "0x0c842ad3"
    },
    {
      "constant": false,
      "inputs": [
        {
          "name": "contractId",
          "type": "uint256"
        }
      ],
      "name": "payPremium",
      "outputs": [
        {
          "name": "",
          "type": "bool"
        }
      ],
      "payable": false,
      "stateMutability": "nonpayable",
      "type": "function",
      "signature": "0x4364b26e"
    },
    {
      "constant": true,
      "inputs": [
        {
          "name": "contractId",
          "type": "uint256"
        }
      ],
      "name": "getContract",
      "outputs": [
        {
          "name": "",
          "type": "address"
        },
        {
          "name": "",
          "type": "address"
        },
        {
          "name": "",
          "type": "uint256"
        },
        {
          "name": "",
          "type": "uint256"
        },
        {
          "name": "",
          "type": "bool"
        },
        {
          "name": "",
          "type": "uint256"
        },
        {
          "name": "",
          "type": "uint256"
        }
      ],
      "payable": false,
      "stateMutability": "view",
      "type": "function",
      "signature": "0x6ebc8c86"
    },
    {
      "constant": true,
      "inputs": [
        {
          "name": "contractId",
          "type": "uint256"
        }
      ],
      "name": "getActiveContractTemplate",
      "outputs": [
        {
          "name": "",
          "type": "address"
        },
        {
          "name": "",
          "type": "uint256"
        },
        {
          "name": "",
          "type": "uint256"
        },
        {
          "name": "",
          "type": "uint256"
        },
        {
          "name": "",
          "type": "uint256"
        },
        {
          "name": "",
          "type": "string"
        },
        {
          "name": "",
          "type": "uint256"
        }
      ],
      "payable": false,
      "stateMutability": "view",
      "type": "function",
      "signature": "0x2b986293"
    },
    {
      "constant": true,
      "inputs": [
        {
          "name": "templateId",
          "type": "uint256"
        }
      ],
      "name": "getContractTemplate",
      "outputs": [
        {
          "name": "",
          "type": "address"
        },
        {
          "name": "",
          "type": "uint256"
        },
        {
          "name": "",
          "type": "uint256"
        },
        {
          "name": "",
          "type": "uint256"
        },
        {
          "name": "",
          "type": "uint256"
        },
        {
          "name": "",
          "type": "string"
        },
        {
          "name": "",
          "type": "uint256"
        }
      ],
      "payable": false,
      "stateMutability": "view",
      "type": "function",
      "signature": "0x89819a69"
    },
    {
      "constant": true,
      "inputs": [
        {
          "name": "user",
          "type": "address"
        }
      ],
      "name": "getActiveContractsByUser",
      "outputs": [
        {
          "name": "",
          "type": "uint256[]"
        }
      ],
      "payable": false,
      "stateMutability": "view",
      "type": "function",
      "signature": "0x9f3570df"
    },
    {
      "constant": true,
      "inputs": [],
      "name": "getChainlinkToken",
      "outputs": [
        {
          "name": "",
          "type": "address"
        }
      ],
      "payable": false,
      "stateMutability": "view",
      "type": "function",
      "signature": "0x165d35e1"
    },
    {
      "constant": false,
      "inputs": [
        {
          "name": "_requestId",
          "type": "bytes32"
        },
        {
          "name": "_data",
          "type": "uint256"
        }
      ],
      "name": "fulfill",
      "outputs": [],
      "payable": false,
      "stateMutability": "nonpayable",
      "type": "function",
      "signature": "0x4357855e"
    },
    {
      "constant": false,
      "inputs": [],
      "name": "withdrawLink",
      "outputs": [],
      "payable": false,
      "stateMutability": "nonpayable",
      "type": "function",
      "signature": "0x8dc654a2"
    },
    {
      "constant": false,
      "inputs": [
        {
          "name": "_requestId",
          "type": "bytes32"
        },
        {
          "name": "_payment",
          "type": "uint256"
        },
        {
          "name": "_callbackFunctionId",
          "type": "bytes4"
        },
        {
          "name": "_expiration",
          "type": "uint256"
        }
      ],
      "name": "cancelRequest",
      "outputs": [],
      "payable": false,
      "stateMutability": "nonpayable",
      "type": "function",
      "signature": "0xec65d0f8"
    }
  ],
  "bytecode": "0x608060405260016004553480156200001657600080fd5b50604051604080620030e1833981018060405281019080805190602001909291908051906020019092919050505033600660006101000a81548173ffffffffffffffffffffffffffffffffffffffff021916908373ffffffffffffffffffffffffffffffffffffffff160217905550600073ffffffffffffffffffffffffffffffffffffffff168273ffffffffffffffffffffffffffffffffffffffff161415620000da57620000d46200013e640100000000026401000000009004565b620000f5565b620000f4826200020f640100000000026401000000009004565b5b80600760006101000a81548173ffffffffffffffffffffffffffffffffffffffff021916908373ffffffffffffffffffffffffffffffffffffffff160217905550505062000253565b6200020d73c89bd4e1632d3a43cb03aaad5262cbe4038bc57173ffffffffffffffffffffffffffffffffffffffff166338cc48316040518163ffffffff167c0100000000000000000000000000000000000000000000000000000000028152600401602060405180830381600087803b158015620001bb57600080fd5b505af1158015620001d0573d6000803e3d6000fd5b505050506040513d6020811015620001e757600080fd5b81019080805190602001909291905050506200020f640100000000026401000000009004565b565b80600260006101000a81548173ffffffffffffffffffffffffffffffffffffffff021916908373ffffffffffffffffffffffffffffffffffffffff16021790555050565b612e7e80620002636000396000f300608060405260043610610128576000357c0100000000000000000000000000000000000000000000000000000000900463ffffffff16806306de30b01461012d5780630c842ad31461018e578063165d35e1146101d357806316ba6dad1461022a5780632b986293146102cf57806335ebdfd0146103cb5780634357855e1461042c5780634364b26e146104675780636ebc8c86146104ac578063715018a61461057357806372d00e9f1461058a57806389819a691461061e5780638da5cb5b1461071a5780638dc654a2146107715780639d506c65146107885780639f3570df1461088b578063d0bd7b3814610923578063d285680d1461094e578063d439944514610979578063e0bab4c4146109a6578063ec65d0f8146109fd578063f2fde38b14610a6b575b600080fd5b34801561013957600080fd5b50610178600480360381019080803573ffffffffffffffffffffffffffffffffffffffff16906020019092919080359060200190929190505050610aae565b6040518082815260200191505060405180910390f35b34801561019a57600080fd5b506101b960048036038101908080359060200190929190505050610ade565b604051808215151515815260200191505060405180910390f35b3480156101df57600080fd5b506101e8610e3e565b604051808273ffffffffffffffffffffffffffffffffffffffff1673ffffffffffffffffffffffffffffffffffffffff16815260200191505060405180910390f35b34801561023657600080fd5b506102b9600480360381019080803590602001909291908035906020019092919080359060200190929190803590602001908201803590602001908080601f016020809104026020016040519081016040528093929190818152602001838380828437820191505050505050919291929080359060200190929190505050610e4d565b6040518082815260200191505060405180910390f35b3480156102db57600080fd5b506102fa6004803603810190808035906020019092919050505061113f565b604051808873ffffffffffffffffffffffffffffffffffffffff1673ffffffffffffffffffffffffffffffffffffffff16815260200187815260200186815260200185815260200184815260200180602001838152602001828103825284818151815260200191508051906020019080838360005b8381101561038a57808201518184015260208101905061036f565b50505050905090810190601f1680156103b75780820380516001836020036101000a031916815260200191505b509850505050505050505060405180910390f35b3480156103d757600080fd5b50610416600480360381019080803573ffffffffffffffffffffffffffffffffffffffff169060200190929190803590602001909291905050506112ec565b6040518082815260200191505060405180910390f35b34801561043857600080fd5b5061046560048036038101908080356000191690602001909291908035906020019092919050505061131c565b005b34801561047357600080fd5b5061049260048036038101908080359060200190929190505050611495565b604051808215151515815260200191505060405180910390f35b3480156104b857600080fd5b506104d760048036038101908080359060200190929190505050611879565b604051808873ffffffffffffffffffffffffffffffffffffffff1673ffffffffffffffffffffffffffffffffffffffff1681526020018773ffffffffffffffffffffffffffffffffffffffff1673ffffffffffffffffffffffffffffffffffffffff1681526020018681526020018581526020018415151515815260200183815260200182815260200197505050505050505060405180910390f35b34801561057f57600080fd5b50610588611acf565b005b34801561059657600080fd5b506105b560048036038101908080359060200190929190505050611bd4565b604051808781526020018673ffffffffffffffffffffffffffffffffffffffff1673ffffffffffffffffffffffffffffffffffffffff16815260200185815260200184151515158152602001838152602001828152602001965050505050505060405180910390f35b34801561062a57600080fd5b5061064960048036038101908080359060200190929190505050611d7d565b604051808873ffffffffffffffffffffffffffffffffffffffff1673ffffffffffffffffffffffffffffffffffffffff16815260200187815260200186815260200185815260200184815260200180602001838152602001828103825284818151815260200191508051906020019080838360005b838110156106d95780820151818401526020810190506106be565b50505050905090810190601f1680156107065780820380516001836020036101000a031916815260200191505b509850505050505050505060405180910390f35b34801561072657600080fd5b5061072f611f27565b604051808273ffffffffffffffffffffffffffffffffffffffff1673ffffffffffffffffffffffffffffffffffffffff16815260200191505060405180910390f35b34801561077d57600080fd5b50610786611f4d565b005b34801561079457600080fd5b506107b3600480360381019080803590602001909291905050506121df565b604051808973ffffffffffffffffffffffffffffffffffffffff1673ffffffffffffffffffffffffffffffffffffffff16815260200188815260200187815260200186815260200185815260200184815260200180602001838152602001828103825284818151815260200191508051906020019080838360005b8381101561084957808201518184015260208101905061082e565b50505050905090810190601f1680156108765780820380516001836020036101000a031916815260200191505b50995050505050505050505060405180910390f35b34801561089757600080fd5b506108cc600480360381019080803573ffffffffffffffffffffffffffffffffffffffff1690602001909291905050506122df565b6040518080602001828103825283818151815260200191508051906020019060200280838360005b8381101561090f5780820151818401526020810190506108f4565b505050509050019250505060405180910390f35b34801561092f57600080fd5b50610938612376565b6040518082815260200191505060405180910390f35b34801561095a57600080fd5b5061096361237c565b6040518082815260200191505060405180910390f35b34801561098557600080fd5b506109a460048036038101908080359060200190929190505050612382565b005b3480156109b257600080fd5b506109bb6128e2565b604051808273ffffffffffffffffffffffffffffffffffffffff1673ffffffffffffffffffffffffffffffffffffffff16815260200191505060405180910390f35b348015610a0957600080fd5b50610a6960048036038101908080356000191690602001909291908035906020019092919080357bffffffffffffffffffffffffffffffffffffffffffffffffffffffff1916906020019092919080359060200190929190505050612908565b005b348015610a7757600080fd5b50610aac600480360381019080803573ffffffffffffffffffffffffffffffffffffffff169060200190929190505050612976565b005b600d60205281600052604060002081815481101515610ac957fe5b90600052602060002001600091509150505481565b6000610ae8612c9f565b600b600084815260200190815260200160002060c060405190810160405290816000820161010060405190810160405290816000820160009054906101000a900473ffffffffffffffffffffffffffffffffffffffff1673ffffffffffffffffffffffffffffffffffffffff1673ffffffffffffffffffffffffffffffffffffffff1681526020016001820154815260200160028201548152602001600382015481526020016004820154815260200160058201548152602001600682018054600181600116156101000203166002900480601f016020809104026020016040519081016040528092919081815260200182805460018160011615610100020316600290048015610c3a5780601f10610c0f57610100808354040283529160200191610c3a565b820191906000526020600020905b815481529060010190602001808311610c1d57829003601f168201915b5050505050815260200160078201548152505081526020016008820160009054906101000a900473ffffffffffffffffffffffffffffffffffffffff1673ffffffffffffffffffffffffffffffffffffffff1673ffffffffffffffffffffffffffffffffffffffff16815260200160098201548152602001600a820160009054906101000a900460ff16151515158152602001600b8201548152602001600c82015481525050905080606001511515610cf257600080fd5b600760009054906101000a900473ffffffffffffffffffffffffffffffffffffffff1673ffffffffffffffffffffffffffffffffffffffff1663a9059cbb82602001518360000151608001516040518363ffffffff167c0100000000000000000000000000000000000000000000000000000000028152600401808373ffffffffffffffffffffffffffffffffffffffff1673ffffffffffffffffffffffffffffffffffffffff16815260200182815260200192505050602060405180830381600087803b158015610dc357600080fd5b505af1158015610dd7573d6000803e3d6000fd5b505050506040513d6020811015610ded57600080fd5b81019080805190602001909291905050501515610e0957600080fd5b6000600b6000858152602001908152602001600020600a0160006101000a81548160ff02191690831515021790555050919050565b6000610e486129de565b905090565b600080610e58612cf5565b600760009054906101000a900473ffffffffffffffffffffffffffffffffffffffff1673ffffffffffffffffffffffffffffffffffffffff166323b872dd33308a6040518463ffffffff167c0100000000000000000000000000000000000000000000000000000000028152600401808473ffffffffffffffffffffffffffffffffffffffff1673ffffffffffffffffffffffffffffffffffffffff1681526020018373ffffffffffffffffffffffffffffffffffffffff1673ffffffffffffffffffffffffffffffffffffffff1681526020018281526020019350505050602060405180830381600087803b158015610f5157600080fd5b505af1158015610f65573d6000803e3d6000fd5b505050506040513d6020811015610f7b57600080fd5b81019080805190602001909291905050501515610f9757600080fd5b603c860242019150610100604051908101604052803373ffffffffffffffffffffffffffffffffffffffff16815260200160018152602001898152602001858152602001888152602001838152602001868152602001600854815250905080600a6000600854815260200190815260200160002060008201518160000160006101000a81548173ffffffffffffffffffffffffffffffffffffffff021916908373ffffffffffffffffffffffffffffffffffffffff1602179055506020820151816001015560408201518160020155606082015181600301556080820151816004015560a0820151816005015560c08201518160060190805190602001906110a0929190612d51565b5060e08201518160070155905050600c60003373ffffffffffffffffffffffffffffffffffffffff1673ffffffffffffffffffffffffffffffffffffffff1681526020019081526020016000208160e0015190806001815401808255809150509060018203906000526020600020016000909192909190915055506008600081548092919060010191905055508060e001519250505095945050505050565b600080600080600060606000611153612cf5565b600b60008a815260200190815260200160002060000161010060405190810160405290816000820160009054906101000a900473ffffffffffffffffffffffffffffffffffffffff1673ffffffffffffffffffffffffffffffffffffffff1673ffffffffffffffffffffffffffffffffffffffff1681526020016001820154815260200160028201548152602001600382015481526020016004820154815260200160058201548152602001600682018054600181600116156101000203166002900480601f0160208091040260200160405190810160405280929190818152602001828054600181600116156101000203166002900480156112975780601f1061126c57610100808354040283529160200191611297565b820191906000526020600020905b81548152906001019060200180831161127a57829003601f168201915b50505050508152602001600782015481525050905080600001518160200151826040015183608001518460a001518560c001518660e00151819150975097509750975097509750975050919395979092949650565b600c6020528160005260406000208181548110151561130757fe5b90600052602060002001600091509150505481565b8160056000826000191660001916815260200190815260200160002060009054906101000a900473ffffffffffffffffffffffffffffffffffffffff1673ffffffffffffffffffffffffffffffffffffffff163373ffffffffffffffffffffffffffffffffffffffff16141515611421576040517f08c379a00000000000000000000000000000000000000000000000000000000081526004018080602001828103825260288152602001807f536f75726365206d75737420626520746865206f7261636c65206f662074686581526020017f207265717565737400000000000000000000000000000000000000000000000081525060400191505060405180910390fd5b60056000826000191660001916815260200190815260200160002060006101000a81549073ffffffffffffffffffffffffffffffffffffffff021916905580600019167f7cc135e0cebb02c3480ae5d74d377283180a2601f8f644edf7987b009316c63a60405160405180910390a2505050565b600061149f612c9f565b600b600084815260200190815260200160002060c060405190810160405290816000820161010060405190810160405290816000820160009054906101000a900473ffffffffffffffffffffffffffffffffffffffff1673ffffffffffffffffffffffffffffffffffffffff1673ffffffffffffffffffffffffffffffffffffffff1681526020016001820154815260200160028201548152602001600382015481526020016004820154815260200160058201548152602001600682018054600181600116156101000203166002900480601f0160208091040260200160405190810160405280929190818152602001828054600181600116156101000203166002900480156115f15780601f106115c6576101008083540402835291602001916115f1565b820191906000526020600020905b8154815290600101906020018083116115d457829003601f168201915b5050505050815260200160078201548152505081526020016008820160009054906101000a900473ffffffffffffffffffffffffffffffffffffffff1673ffffffffffffffffffffffffffffffffffffffff1673ffffffffffffffffffffffffffffffffffffffff16815260200160098201548152602001600a820160009054906101000a900460ff16151515158152602001600b8201548152602001600c820154815250509050806060015180156116d95750806020015173ffffffffffffffffffffffffffffffffffffffff163373ffffffffffffffffffffffffffffffffffffffff16145b15156116e457600080fd5b80600001516060015181608001511015156116fe57600080fd5b600760009054906101000a900473ffffffffffffffffffffffffffffffffffffffff1673ffffffffffffffffffffffffffffffffffffffff166323b872dd338360000151600001518460000151604001516040518463ffffffff167c0100000000000000000000000000000000000000000000000000000000028152600401808473ffffffffffffffffffffffffffffffffffffffff1673ffffffffffffffffffffffffffffffffffffffff1681526020018373ffffffffffffffffffffffffffffffffffffffff1673ffffffffffffffffffffffffffffffffffffffff1681526020018281526020019350505050602060405180830381600087803b15801561180757600080fd5b505af115801561181b573d6000803e3d6000fd5b505050506040513d602081101561183157600080fd5b8101908080519060200190929190505050151561184d57600080fd5b600b6000848152602001908152602001600020600b016000815480929190600101919050555050919050565b600080600080600080600061188c612c9f565b600b60008a815260200190815260200160002060c060405190810160405290816000820161010060405190810160405290816000820160009054906101000a900473ffffffffffffffffffffffffffffffffffffffff1673ffffffffffffffffffffffffffffffffffffffff1673ffffffffffffffffffffffffffffffffffffffff1681526020016001820154815260200160028201548152602001600382015481526020016004820154815260200160058201548152602001600682018054600181600116156101000203166002900480601f0160208091040260200160405190810160405280929190818152602001828054600181600116156101000203166002900480156119de5780601f106119b3576101008083540402835291602001916119de565b820191906000526020600020905b8154815290600101906020018083116119c157829003601f168201915b5050505050815260200160078201548152505081526020016008820160009054906101000a900473ffffffffffffffffffffffffffffffffffffffff1673ffffffffffffffffffffffffffffffffffffffff1673ffffffffffffffffffffffffffffffffffffffff16815260200160098201548152602001600a820160009054906101000a900460ff16151515158152602001600b8201548152602001600c8201548152505090508060000151600001518160200151826000015160e00151836040015184606001518560800151866000015160600151975097509750975097509750975050919395979092949650565b600660009054906101000a900473ffffffffffffffffffffffffffffffffffffffff1673ffffffffffffffffffffffffffffffffffffffff163373ffffffffffffffffffffffffffffffffffffffff16141515611b2b57600080fd5b600660009054906101000a900473ffffffffffffffffffffffffffffffffffffffff1673ffffffffffffffffffffffffffffffffffffffff167ff8df31144d9c2f0f6b59d69b8b98abd5459d07f2742c4df920b25aae33c6482060405160405180910390a26000600660006101000a81548173ffffffffffffffffffffffffffffffffffffffff021916908373ffffffffffffffffffffffffffffffffffffffff160217905550565b600b6020528060005260406000206000915090508060000161010060405190810160405290816000820160009054906101000a900473ffffffffffffffffffffffffffffffffffffffff1673ffffffffffffffffffffffffffffffffffffffff1673ffffffffffffffffffffffffffffffffffffffff1681526020016001820154815260200160028201548152602001600382015481526020016004820154815260200160058201548152602001600682018054600181600116156101000203166002900480601f016020809104026020016040519081016040528092919081815260200182805460018160011615610100020316600290048015611d1a5780601f10611cef57610100808354040283529160200191611d1a565b820191906000526020600020905b815481529060010190602001808311611cfd57829003601f168201915b50505050508152602001600782015481525050908060080160009054906101000a900473ffffffffffffffffffffffffffffffffffffffff169080600901549080600a0160009054906101000a900460ff169080600b01549080600c0154905086565b600080600080600060606000611d91612cf5565b600a60008a815260200190815260200160002061010060405190810160405290816000820160009054906101000a900473ffffffffffffffffffffffffffffffffffffffff1673ffffffffffffffffffffffffffffffffffffffff1673ffffffffffffffffffffffffffffffffffffffff1681526020016001820154815260200160028201548152602001600382015481526020016004820154815260200160058201548152602001600682018054600181600116156101000203166002900480601f016020809104026020016040519081016040528092919081815260200182805460018160011615610100020316600290048015611ed25780601f10611ea757610100808354040283529160200191611ed2565b820191906000526020600020905b815481529060010190602001808311611eb557829003601f168201915b50505050508152602001600782015481525050905080600001518160200151826040015183608001518460a001518560c001518660e00151819150975097509750975097509750975050919395979092949650565b600660009054906101000a900473ffffffffffffffffffffffffffffffffffffffff1681565b6000600660009054906101000a900473ffffffffffffffffffffffffffffffffffffffff1673ffffffffffffffffffffffffffffffffffffffff163373ffffffffffffffffffffffffffffffffffffffff16141515611fab57600080fd5b611fb36129de565b90508073ffffffffffffffffffffffffffffffffffffffff1663a9059cbb338373ffffffffffffffffffffffffffffffffffffffff166370a08231306040518263ffffffff167c0100000000000000000000000000000000000000000000000000000000028152600401808273ffffffffffffffffffffffffffffffffffffffff1673ffffffffffffffffffffffffffffffffffffffff168152602001915050602060405180830381600087803b15801561206d57600080fd5b505af1158015612081573d6000803e3d6000fd5b505050506040513d602081101561209757600080fd5b81019080805190602001909291905050506040518363ffffffff167c0100000000000000000000000000000000000000000000000000000000028152600401808373ffffffffffffffffffffffffffffffffffffffff1673ffffffffffffffffffffffffffffffffffffffff16815260200182815260200192505050602060405180830381600087803b15801561212d57600080fd5b505af1158015612141573d6000803e3d6000fd5b505050506040513d602081101561215757600080fd5b810190808051906020019092919050505015156121dc576040517f08c379a00000000000000000000000000000000000000000000000000000000081526004018080602001828103825260128152602001807f556e61626c6520746f207472616e73666572000000000000000000000000000081525060200191505060405180910390fd5b50565b600a6020528060005260406000206000915090508060000160009054906101000a900473ffffffffffffffffffffffffffffffffffffffff1690806001015490806002015490806003015490806004015490806005015490806006018054600181600116156101000203166002900480601f0160208091040260200160405190810160405280929190818152602001828054600181600116156101000203166002900480156122cf5780601f106122a4576101008083540402835291602001916122cf565b820191906000526020600020905b8154815290600101906020018083116122b257829003601f168201915b5050505050908060070154905088565b6060600d60008373ffffffffffffffffffffffffffffffffffffffff1673ffffffffffffffffffffffffffffffffffffffff16815260200190815260200160002080548060200260200160405190810160405280929190818152602001828054801561236a57602002820191906000526020600020905b815481526020019060010190808311612356575b50505050509050919050565b60095481565b60085481565b61238a612cf5565b612392612c9f565b600a600084815260200190815260200160002061010060405190810160405290816000820160009054906101000a900473ffffffffffffffffffffffffffffffffffffffff1673ffffffffffffffffffffffffffffffffffffffff1673ffffffffffffffffffffffffffffffffffffffff1681526020016001820154815260200160028201548152602001600382015481526020016004820154815260200160058201548152602001600682018054600181600116156101000203166002900480601f0160208091040260200160405190810160405280929190818152602001828054600181600116156101000203166002900480156124d35780601f106124a8576101008083540402835291602001916124d3565b820191906000526020600020905b8154815290600101906020018083116124b657829003601f168201915b505050505081526020016007820154815250509150600760009054906101000a900473ffffffffffffffffffffffffffffffffffffffff1673ffffffffffffffffffffffffffffffffffffffff166323b872dd33846000015185604001516040518463ffffffff167c0100000000000000000000000000000000000000000000000000000000028152600401808473ffffffffffffffffffffffffffffffffffffffff1673ffffffffffffffffffffffffffffffffffffffff1681526020018373ffffffffffffffffffffffffffffffffffffffff1673ffffffffffffffffffffffffffffffffffffffff1681526020018281526020019350505050602060405180830381600087803b1580156125e957600080fd5b505af11580156125fd573d6000803e3d6000fd5b505050506040513d602081101561261357600080fd5b8101908080519060200190929190505050151561262f57600080fd5b60c0604051908101604052808381526020013373ffffffffffffffffffffffffffffffffffffffff16815260200160095481526020016001151581526020016000815260200160008152509050600d60003373ffffffffffffffffffffffffffffffffffffffff1673ffffffffffffffffffffffffffffffffffffffff16815260200190815260200160002081604001519080600181540180825580915050906001820390600052602060002001600090919290919091505550600d6000836000015173ffffffffffffffffffffffffffffffffffffffff1673ffffffffffffffffffffffffffffffffffffffff1681526020019081526020016000208160400151908060018154018082558091505090600182039060005260206000200160009091929091909150555080600b6000600954815260200190815260200160002060008201518160000160008201518160000160006101000a81548173ffffffffffffffffffffffffffffffffffffffff021916908373ffffffffffffffffffffffffffffffffffffffff1602179055506020820151816001015560408201518160020155606082015181600301556080820151816004015560a0820151816005015560c082015181600601908051906020019061280e929190612d51565b5060e08201518160070155505060208201518160080160006101000a81548173ffffffffffffffffffffffffffffffffffffffff021916908373ffffffffffffffffffffffffffffffffffffffff16021790555060408201518160090155606082015181600a0160006101000a81548160ff021916908315150217905550608082015181600b015560a082015181600c0155905050600b60006009548152602001908152602001600020600b0160008154809291906001019190505550600960008154809291906001019190505550505050565b600760009054906101000a900473ffffffffffffffffffffffffffffffffffffffff1681565b600660009054906101000a900473ffffffffffffffffffffffffffffffffffffffff1673ffffffffffffffffffffffffffffffffffffffff163373ffffffffffffffffffffffffffffffffffffffff1614151561296457600080fd5b61297084848484612a08565b50505050565b600660009054906101000a900473ffffffffffffffffffffffffffffffffffffffff1673ffffffffffffffffffffffffffffffffffffffff163373ffffffffffffffffffffffffffffffffffffffff161415156129d257600080fd5b6129db81612ba3565b50565b6000600260009054906101000a900473ffffffffffffffffffffffffffffffffffffffff16905090565b600060056000866000191660001916815260200190815260200160002060009054906101000a900473ffffffffffffffffffffffffffffffffffffffff16905060056000866000191660001916815260200190815260200160002060006101000a81549073ffffffffffffffffffffffffffffffffffffffff021916905584600019167fe1fe3afa0f7f761ff0a8b89086790efd5140d2907ebd5b7ff6bfcb5e075fd4c560405160405180910390a28073ffffffffffffffffffffffffffffffffffffffff16636ee4d553868686866040518563ffffffff167c0100000000000000000000000000000000000000000000000000000000028152600401808560001916600019168152602001848152602001837bffffffffffffffffffffffffffffffffffffffffffffffffffffffff19167bffffffffffffffffffffffffffffffffffffffffffffffffffffffff19168152602001828152602001945050505050600060405180830381600087803b158015612b8457600080fd5b505af1158015612b98573d6000803e3d6000fd5b505050505050505050565b600073ffffffffffffffffffffffffffffffffffffffff168173ffffffffffffffffffffffffffffffffffffffff1614151515612bdf57600080fd5b8073ffffffffffffffffffffffffffffffffffffffff16600660009054906101000a900473ffffffffffffffffffffffffffffffffffffffff1673ffffffffffffffffffffffffffffffffffffffff167f8be0079c531659141344cd1fd0a4f28419497f9722a3daafe3b4186f6b6457e060405160405180910390a380600660006101000a81548173ffffffffffffffffffffffffffffffffffffffff021916908373ffffffffffffffffffffffffffffffffffffffff16021790555050565b6101a060405190810160405280612cb4612dd1565b8152602001600073ffffffffffffffffffffffffffffffffffffffff1681526020016000815260200160001515815260200160008152602001600081525090565b61010060405190810160405280600073ffffffffffffffffffffffffffffffffffffffff168152602001600081526020016000815260200160008152602001600081526020016000815260200160608152602001600081525090565b828054600181600116156101000203166002900490600052602060002090601f016020900481019282601f10612d9257805160ff1916838001178555612dc0565b82800160010185558215612dc0579182015b82811115612dbf578251825591602001919060010190612da4565b5b509050612dcd9190612e2d565b5090565b61010060405190810160405280600073ffffffffffffffffffffffffffffffffffffffff168152602001600081526020016000815260200160008152602001600081526020016000815260200160608152602001600081525090565b612e4f91905b80821115612e4b576000816000905550600101612e33565b5090565b905600a165627a7a7230582082fdf729e36d8314a85b138b9fe03e353f5bed0f81dde421af0b0110478f45030029",
  "source": "pragma solidity 0.4.24;\n\nimport \"chainlink/contracts/ChainlinkClient.sol\";\nimport \"openzeppelin-solidity/contracts/ownership/Ownable.sol\";\nimport \"./lib/IERC20.sol\";\n\ncontract Insuralink is ChainlinkClient, Ownable {\n\n  struct InsuranceContractTemplate {\n    address seller;\n    uint256 paymentFrequency;\n    uint256 paymentAmount;\n    uint256 totalNumberOfPayments;\n    uint256 insuranceAmount;\n    uint256 validUntil;\n    string description;\n    uint256 id;\n  }\n\n  struct InsuranceContract {\n    InsuranceContractTemplate contractTemplate;\n    address buyer;\n    uint256 id;\n    bool valid;\n    uint256 numberOfPayments;\n    uint256 lastPaymentTime;\n  }\n\n  IERC20 public DAI;\n  uint256 public templateCounter;\n  uint256 public activeCounter;\n  mapping (uint256 => InsuranceContractTemplate) public contractTemplates;\n  mapping (uint256 => InsuranceContract) public activeContracts;\n  mapping (address => uint256[]) public templatesByUser;\n  mapping (address => uint256[]) public activeContractsByUser;\n\n  /**\n   * @notice Deploy the contract with a specified address for the LINK\n   * and Oracle contract addresses\n   * @dev Sets the storage for the specified addresses\n   * @param _link The address of the LINK token contract\n   */\n  constructor(address _link, address daiToken) public {\n    //TODO set chainlink oracle address (for now just 1)\n    if (_link == address(0)) {\n      setPublicChainlinkToken();\n    } else {\n      setChainlinkToken(_link);\n    }\n\n    DAI = IERC20(daiToken);\n    //TODO\n    // setChainlinkOracle(address(0));\n  }\n\n  function createInsuranceContractTemplate(uint256 paymentAmount, uint256 insuranceAmount, uint256 length,\n    string memory description, uint256 totalNumberOfPayments) public returns(uint256) {\n      //Ensure DAI is deposited on creation\n      require(DAI.transferFrom(msg.sender, address(this), insuranceAmount));\n      uint256 validUntil = now + (length * (1 minutes));\n      InsuranceContractTemplate memory template = InsuranceContractTemplate(msg.sender, 1, \n        paymentAmount, totalNumberOfPayments, insuranceAmount, validUntil, description, templateCounter);\n      contractTemplates[templateCounter] = template;\n      templatesByUser[msg.sender].push(template.id);\n      templateCounter++;\n      return template.id;\n  }\n\n  function buyContract(uint256 contractTemplateId) public {\n    InsuranceContractTemplate memory template = contractTemplates[contractTemplateId];\n    //Pay first insurance payment on buy in\n    require(DAI.transferFrom(msg.sender, template.seller, template.paymentAmount));\n    InsuranceContract memory insuranceContract = InsuranceContract(template, msg.sender, activeCounter, true, 0, 0);\n    activeContractsByUser[msg.sender].push(insuranceContract.id);\n    activeContractsByUser[template.seller].push(insuranceContract.id);\n    activeContracts[activeCounter] = insuranceContract;\n    activeContracts[activeCounter].numberOfPayments++;\n    activeCounter++;\n  }\n\n  /** Function to trigger payout\n  * Called by the oracle when the sensor passes the threshold\n  * TODO ensure only the oracle(s) can call this function\n  */\n  function payoutInsurance(uint256 contractId) public returns(bool) {\n    InsuranceContract memory insuranceContract = activeContracts[contractId];\n    require(insuranceContract.valid);\n    require(DAI.transfer(insuranceContract.buyer, insuranceContract.contractTemplate.insuranceAmount));\n    activeContracts[contractId].valid = false;\n  }\n  \n  /**\n  * Function to allow the user to pay their premium on the contract\n  */\n  function payPremium(uint256 contractId) public returns(bool) {\n    InsuranceContract memory insuranceContract = activeContracts[contractId];\n    require(insuranceContract.valid && msg.sender == insuranceContract.buyer);\n    require(insuranceContract.numberOfPayments < insuranceContract.contractTemplate.totalNumberOfPayments);\n    require(DAI.transferFrom(msg.sender, insuranceContract.contractTemplate.seller,\n      insuranceContract.contractTemplate.paymentAmount));\n    activeContracts[contractId].numberOfPayments++;\n  }\n\n  function getContract(uint256 contractId) public view returns(address, address, uint256, uint256, bool, uint256, uint256) {\n    InsuranceContract memory insuranceContract = activeContracts[contractId];\n    return(insuranceContract.contractTemplate.seller, insuranceContract.buyer, \n      insuranceContract.contractTemplate.id, insuranceContract.id, insuranceContract.valid,\n      insuranceContract.numberOfPayments, insuranceContract.contractTemplate.totalNumberOfPayments);\n  }\n\n  function getActiveContractTemplate(uint256 contractId) public view returns(address, uint256, uint256, uint256,\n      uint256, string, uint256) {\n    InsuranceContractTemplate memory template = activeContracts[contractId].contractTemplate;\n    return (template.seller, template.paymentFrequency, template.paymentAmount, template.insuranceAmount,\n      template.validUntil, template.description, template.id);\n  }\n\n  function getContractTemplate(uint256 templateId) public view returns(address, uint256, uint256, uint256,\n      uint256, string, uint256){\n    InsuranceContractTemplate memory template = contractTemplates[templateId];\n    return (template.seller, template.paymentFrequency, template.paymentAmount, template.insuranceAmount,\n      template.validUntil, template.description, template.id);\n  }\n\n  function getActiveContractsByUser(address user) public view returns(uint256[]) {\n    return activeContractsByUser[user];\n  }\n\n  //TODO\n  //depositDai\n\n  //Chainlink Code\n  /**\n   * @notice Returns the address of the LINK token\n   * @dev This is the public implementation for chainlinkTokenAddress, which is\n   * an internal method of the ChainlinkClient contract\n   */\n  function getChainlinkToken() public view returns (address) {\n    return chainlinkTokenAddress();\n  }\n\n  /**\n   * @notice The fulfill method from requests created by this contract\n   * @dev The recordChainlinkFulfillment protects this function from being called\n   * by anyone other than the oracle address that the request was sent to\n   * @param _requestId The ID that was generated for the request\n   * @param _data The answer provided by the oracle\n   */\n  function fulfill(bytes32 _requestId, uint256 _data)\n    public\n    recordChainlinkFulfillment(_requestId)\n  {\n    //TODO\n  }\n\n  /**\n   * @notice Allows the owner to withdraw any LINK balance on the contract\n   */\n  function withdrawLink() public onlyOwner {\n    LinkTokenInterface link = LinkTokenInterface(chainlinkTokenAddress());\n    require(link.transfer(msg.sender, link.balanceOf(address(this))), \"Unable to transfer\");\n  }\n\n  /**\n   * @notice Call this method if no response is received within 5 minutes\n   * @param _requestId The ID that was generated for the request to cancel\n   * @param _payment The payment specified for the request to cancel\n   * @param _callbackFunctionId The bytes4 callback function ID specified for\n   * the request to cancel\n   * @param _expiration The expiration generated for the request to cancel\n   */\n  function cancelRequest(\n    bytes32 _requestId,\n    uint256 _payment,\n    bytes4 _callbackFunctionId,\n    uint256 _expiration\n  )\n    public\n    onlyOwner\n  {\n    cancelChainlinkRequest(_requestId, _payment, _callbackFunctionId, _expiration);\n  }\n}",
  "sourcePath": "/Users/raymogg/dev/SDL/EthDevner/insuracelink-contracts/contracts/Insuralink.sol",
  "compiler": {
    "name": "solc",
    "version": "0.4.24+commit.e67f0147.Emscripten.clang"
  },
  "schemaVersion": "3.0.2",
  "updatedAt": "2020-02-16T11:26:14.052Z",
  "devdoc": {
    "methods": {
      "cancelRequest(bytes32,uint256,bytes4,uint256)": {
        "params": {
          "_callbackFunctionId": "The bytes4 callback function ID specified for the request to cancel",
          "_expiration": "The expiration generated for the request to cancel",
          "_payment": "The payment specified for the request to cancel",
          "_requestId": "The ID that was generated for the request to cancel"
        }
      },
      "fulfill(bytes32,uint256)": {
        "details": "The recordChainlinkFulfillment protects this function from being called by anyone other than the oracle address that the request was sent to",
        "params": {
          "_data": "The answer provided by the oracle",
          "_requestId": "The ID that was generated for the request"
        }
      },
      "getChainlinkToken()": {
        "details": "This is the public implementation for chainlinkTokenAddress, which is an internal method of the ChainlinkClient contract"
      },
      "renounceOwnership()": {
        "details": "Allows the current owner to relinquish control of the contract."
      },
      "transferOwnership(address)": {
        "details": "Allows the current owner to transfer control of the contract to a newOwner.",
        "params": {
          "_newOwner": "The address to transfer ownership to."
        }
      }
    }
  },
  "userdoc": {
    "methods": {
      "cancelRequest(bytes32,uint256,bytes4,uint256)": {
        "notice": "Call this method if no response is received within 5 minutes"
      },
      "fulfill(bytes32,uint256)": {
        "notice": "The fulfill method from requests created by this contract"
      },
      "getChainlinkToken()": {
        "notice": "Returns the address of the LINK token"
      },
      "payPremium(uint256)": {
        "notice": "Function to allow the user to pay their premium on the contract"
      },
      "payoutInsurance(uint256)": {
        "notice": "Function to trigger payout Called by the oracle when the sensor passes the threshold TODO ensure only the oracle(s) can call this function"
      },
      "renounceOwnership()": {
        "notice": "Renouncing to ownership will leave the contract without an owner. It will not be possible to call the functions with the `onlyOwner` modifier anymore."
      },
      "withdrawLink()": {
        "notice": "Allows the owner to withdraw any LINK balance on the contract"
      }
    }
  }
}